:020000040800F2
:10000000484702203541000879410008894100082D
:1000100099410008A9410008B9410008000000000A
:10002000000000000000000000000000794100080E
:10003000794100080000000079410008C13700083C
:1000400079410008794100087941000879410008A8
:100050007941000879410008794100087941000898
:100060007941000879410008794100087941000888
:100070007941000879410008794100087941000878
:100080007941000879410008794100087941000868
:100090007941000879410008794100087941000858
:1000A0007941000879410008794100087941000848
:1000B0007941000879410008794100087941000838
:1000C0007941000879410008794100087941000828
:1000D00079410008B9020008794100087941000817
:1000E0000941000879410008794100087941000878
:1000F00079410008794100087941000879410008F8
:10010000794100081DD702080D87020879410008CF
:1001100079410008794100087941000879410008D7
:1001200079410008794100087941000821D7020887
:1001300079410008794100087941000879410008B7
:1001400079410008794100087941000879410008A7
:100150007941000879410008794100087941000897
:100160007941000879410008794100087941000887
:100170007941000845870208794100087941000863
:100180007941000879410008794100087941000867
:100190007941000879410008794100087941000857
:1001A000C5360008794100087941000800B50121F1
:1001B00083B0084626F06EFC01224FF44073694676
:1001C0000348CDE9002325F0BFFD03B05DF804FB33
:1001D0000000024008B50121034825F01BFE003055
:1001E00018BF012008BD00BF0000024030B501214A
:1001F00089B0254D254C084626F04CFC01211020E5
:1002000026F078FC28460722092125F027FE2846FB
:1002100007220A2125F022FE1D4B4FF400722846CA
:1002200002A9CDE9022325F08FFD4FF4806302A9D6
:100230002846029325F088FD2046012127F0EEFF95
:100240004FF4E13500234FF4402204A920460692E2
:10025000CDE90453ADF81C3027F04EFF4FF4A060F9
:1002600024F016FD0B4B019301A824F01BFD204642
:10027000012240F2255128F077F82046012127F08D
:10028000B9FF09B030BD00BF0000024000100140BE
:10029000020300012500000110B504468021054835
:1002A00028F080F80028F9D021460248BDE8104027
:1002B00027F0CABF0010014008B540F2255106489A
:1002C00028F07AF8012800D008BD034827F0C0FFC5
:1002D000024B187008BD00BF001001403CAB01206C
:1002E000F0B5059E07460020188030803C78002C31
:1002F0004DD0B3F800C015E0CC7891F802E04D780D
:1003000065442C441FFA84FCA3F800C034880130F3
:10031000744580B238BFA6F800E03C5C38BFB3F843
:1003200000C0BCB30A2C35D00AB1202C32D00D79D4
:10033000002DE1D1DC2C32D013D9E42C25D018D9F2
:10034000F62C1AD0FC2C12D1622401EB4404E48870
:100350000C4494F8DAE094F8D85094F8D940AE44BC
:10036000CDE7C42C0FD0D62C0BD0A72C07D0203C27
:10037000EBE7DF2CFBD16624E7E76124E5E76724A0
:10038000E3E76424E1E76324DFE76024DDE7B3F813
:1003900000C020464C78ACEB04041C80F0BD652402
:1003A000D3E700BF10B40A4C0023224602E0013319
:1003B0001E2B09D052F8041B0029F8D144F8230061
:1003C00001205DF8044B704700205DF8044B704736
:1003D00040AB012010B40B4C0023224602E0013355
:1003E0001E2B0AD052F8041B8142F8D1002244F897
:1003F000232001205DF8044B704700205DF8044B7A
:10040000704700BF40AB0120044B002103F178028C
:1004100043F8041F9342FBD1704700BF3CAB01205F
:1004200003F030B970B58AB0044624F02FFE684658
:1004300024F090FE124AE30AC4F3451112680493B3
:100440004FF44033684604F01F0402260391FF2551
:100450000021069200934FF4A072F023CDE9071219
:10046000099302940196059524F01EFE24F07EFE69
:10047000022024F06BFF0028FAD00AB070BD00BF44
:10048000BCAB01204FF6FF70FFF7CCBF2DE9F04168
:100490000479A2B0002C6CD0012C67D18B88002B82
:1004A00064D0CA88002A61D00D880488EE18A6425C
:1004B0005CDC4E88478806EB020CBC4556DC0F8995
:1004C0003B44F02B52DC4B8901911A44B2F5A07FDA
:1004D0004CDC544A80681268C3EB031307EB031724
:1004E00006FB045500EB850502EB470624F0CEFD24
:1004F00002A824F02FFE019908968B88CA880A92D8
:10050000C3F1F0074FF4003C02A84FF0020809972E
:100510000027CDE902C80B93CDE90477CDE9067732
:1005200024F0C2FD0CA824F077FE01990C958B886D
:100530000E97E41A0CA8CDE911770D9424F034FE3F
:1005400017A824F0AFFE019917968B8817A8C3F15E
:10055000F003CDE91838CDE91C7724F06BFE24F0C8
:1005600005FE022024F0F2FE0028FAD022B0BDE8F9
:10057000F0818B88002BF9D0CA88002AF6D00E882B
:100580000588F718AF42F1DC4F88B0F802C007EBDE
:10059000020EE645EADCB1F808C06344F02BE5DC66
:1005A0004B8901911A44B2F5A07FDFDC1D4A8068B7
:1005B0001268C3EB03130CEB031C07FB056600EB8F
:1005C000460602EB4C0724F061FD0CA824F0C2FDA6
:1005D000019912978B88CA881593C3F1F00C0CA867
:1005E0000227CDF84CC014920C94CDE90E44CDE90D
:1005F00010440D9724F058FD17A824F00DFE019922
:1006000017968B8817A8ED1ACDE91857CDE91C4429
:1006100024F0CAFD24F0AAFD022024F097FE002851
:10062000FAD0A3E7BCAB012038B50C4C04F1780537
:1006300001E0AC4210D054F8043F002BF9D01A7DF1
:10064000002AF6D01A78002AF3D103F1080158687D
:10065000FFF71CFFAC42EED138BD00BF3CAB012020
:100660002DE9F0410746ADF50C7D0E4603A839464D
:1006700001222DF0D3FF002842D1054602AB0DF137
:100680000601022203A8069C2EF04EF9804600289F
:1006900040F08680BDF806304DF6FF02934238D018
:1006A00033800DF1060102AB022203A82EF03CF9C3
:1006B000BDF8063073800DF1060102AB022203A8DB
:1006C0002EF032F9BDF8063033710DF1060102ABA0
:1006D000083C022203A82EF027F9204631F0C0FE84
:1006E00002AB01460546224603A82EF01DF903A8D9
:1006F0002EF0CEFA0120B5600DF50C7DBDE8F0813D
:1007000039462D4832F06CFA00200DF50C7DBDE81D
:10071000F081014603A82EF0C9FA86F8048020462D
:1007200031F09EFE02AB01460546224603A82EF09C
:10073000FBF803A82EF0ACFA7CB3611E29446B1EB3
:10074000C5F1010401E0994227D0E01813F8012F08
:10075000FF2AF8D15A78C02AF5D12844C479027A00
:100760004179837942EA042243EA01203280708091
:1007700000FB02F0400031F073FE00230146044606
:100780001A46284601F078FE284631F071FE012015
:10079000B4600DF50C7DBDE8F08132887088E7E724
:1007A0003946064832F01CFA03A82EF071FA2846A2
:1007B0000DF50C7DBDE8F08100E70308E0E60308D5
:1007C00010B50446806831F053FE0023A36010BDCD
:1007D0002DE9F04F2DED028B8DB005460B9010EEFC
:1007E000100A0C460192099130F088FC41EC100B84
:1007F00041EC180B2FF000F90022524B51EC100B7A
:1008000030F0D4FC30F06CFFB0EE480AF0EE680A2D
:1008100007B22FF051F900224A4B51EC100B30F087
:10082000C5FC30F05DFF23462188B3F90220B5F9FD
:100830000240B5F90080079415460BB2002D0892CE
:10084000059308EBD87B03EBD37304EBD47402EB72
:10085000D27272DD01F1FF3E1FFA8EFE0FFA80F9AF
:100860005B100EF1010E521007FB03F1CEEB8E7000
:1008700003FB09F3800007FB1233641009FB02112C
:100880004FEA6B0BA4B20A90494203932E4802949C
:1008900000231FFA8BFB4FEA8E0E04910693C2468B
:1008A000059B002B39DD099BD3F808800A9BDDE905
:1008B000035103EB0E041CE080FB0526EA17C2EB94
:1008C000A612029E9A45324412B21DDD002A1BDD9B
:1008D000079E964202FB0A3316DD0B9A9268043497
:1008E00052F82330CCF80030A6453944A5EB090571
:1008F00013D080FB0123CA17C2EBA3135B441BB2C6
:10090000002B08EB040CD7DC0434019BCCF800303E
:10091000A6453944A5EB0905EBD1059A069B0EEBDC
:10092000820E049A4A440492039A3A440133039291
:10093000089A06931BB29A42B2DC0DB0BDEC028B52
:10094000BDE8F08F00408F40D34D62102DE9F04F8D
:100950004768B7F800A07E883B7983B0814606FBE4
:100960000AF2002B49D0012B08BF042347D103FB17
:1009700002F31846019331F073FD8046B86856B310
:100980000AF1FF34B500731EA4B2A5F1040C9BB2AA
:100990004FEA840EACEB83038EF0030E08EB030CDE
:1009A000034600EB84044FEA8A0B50466FEA0E0EB2
:1009B00008EB05069A4648B10EEB0402334652F89E
:1009C000041F43F8041C94422B44F8D1043E6645AE
:1009D0005C44F0D15046019A414632F003F840465B
:1009E00031F046FD3B887A883A807B80A9F80C205C
:1009F000A9F80E3003B0BDE8F08F0223B7E7014835
:100A000002F0E6FE18E703082DE9F843B0F800907D
:100A1000B0F80280077904460D4608FB09F2EFB1F1
:100A2000012F08BF04261BD1A86806FB02F630B1CF
:100A300031F01EFDB4F80090B4F8028027793046FA
:100A400031F00EFDA860A168324631F0CBFFA5F869
:100A50000090A5F802802F71BDE8F8830226E3E735
:100A6000014802F0B5FE00BF18E7030810B504798D
:100A700044B1012C0DD10488806802FB041140F8B8
:100A8000213010BD0488806802FB041120F8113069
:100A900010BD014802F09CFE18E7030808B5037971
:100AA00043B1012B0DD10388806802FB031150F87C
:100AB000210008BD0388806802FB031130F8110093
:100AC00008BD014802F084FE18E703082DE9F04F45
:100AD00091B0DC2805928B461A9A00F0A28140F270
:100AE000E380E42800F09B8140F2F080F62800F0DB
:100AF0008E81FC2840F0E18082201179002940F0AD
:100B0000EC8002EB400030F83A1C0A44049292F860
:100B1000D94092F8D80092F8DA100F94A2B2002AC5
:100B200000F0818103449BB206938BB203931B9B1D
:100B3000059CC3F307430C931B9BC3F307230D933F
:100B40001B9BC3F3C4230A931B9B2244C3F345138B
:100B500092B20B934FF0030801235F460E92CDF83B
:100B600000809B46039B002B00F031814FF0000971
:100B70005E464B4689E004F0F004F02C7BD0B7F8D9
:100B800000B0059A3D7913FB0B239BB20293002C16
:100B900000F00781069A1946384684F0FF04FFF7F3
:100BA0007DFF002D40F0E8801B9B0B9ADDF828A00C
:100BB000099203F01F034FF0FF0E0893C0F3C428FF
:100BC000C0F34513714600F01F00A2B202FB0EFCF9
:100BD0000192974A1FFA88F8A2FB0C2C6218019C1C
:100BE000079218FB0EF19BB2099A0AFB041113FB42
:100BF0000EFA02FB04AA80B2089A10FB0EFECCF398
:100C0000CF1C02FB04EE079A1CFB08F81CFB03F345
:100C10001CFB00F0A1EB0808A2EB0C04AAEB030AF2
:100C2000AEEB000EE4B21FFA88F81FFA8AFA1FFA38
:100C30008EFEB8FBF4F8BAFBF4FABEFBF4FE002D0E
:100C400000F0D180012D16D1069A02995FFA8EF339
:100C50004FEA084843EA046308F47F084FEA0A2A87
:100C60000BFB021143EA08031FFA8AFABA6843EA47
:100C70000A0342F8213009F10109039A1FFA89F3A6
:100C8000934286F0010680F0A180049A00990A44FC
:100C900092F8D840002E7FF46EAF009A0132240102
:100CA00092B2E4B2009268E7C42800F0B680D62879
:100CB00000F0AF80A72800F0AE801F283FF61DAFE0
:100CC00000230F930F9811B0BDE8F08FDF28F4D107
:100CD0001179862000293FF414AF9178D4780F94CD
:100CE0001FFA81FEBEF1000FECD0A0F1200C01FB39
:100CF0000C2CCDF800E0DDF86C80DDF814E00CF190
:100D0000D80CA5B200271CF8016B15B300200246D1
:100D1000802405E0013082B2AA424FEA540418D27E
:100D20002642F7D0BBF800109BF8049011FB07EAAD
:100D3000524492B2B9F1000F14D101FB0322DBF847
:100D40000810013021F8128082B2AA424FEA5404FE
:100D5000E6D30137009ABFB29742D4D10F9811B0B1
:100D6000BDE8F08FB9F1010F5FD101FB0322DBF881
:100D7000081041F82280CDE7012D56D11B9B0D9A1A
:100D800009924FEA106EDBB25FFA8EF10893C0F35E
:100D90000748C0F307231FFA8EFEC0B2DDF830A06B
:100DA00013E745B9069B029A1B990BFB0322BB680C
:100DB00023F812105FE7012D37D1029A069B1B9989
:100DC0000BFB0323BA6842F8231054E7B346059B94
:100DD0000E9A01339BB29A4205937FF4C3AE0F98EB
:100DE00011B0BDE8F08F029A069BCAF3850A4FEA5C
:100DF0004A1AC8F3C4080BFB03214AEAC828CEF3F9
:100E0000C40EBA6848EA0E0E22F811E033E78120DA
:100E100073E6842071E687206FE683206DE68020EC
:100E20006BE6852069E60F924CE7024802F0D0FCA1
:100E30008180808018E7030870B5147982B084B18E
:100E4000D5789C88069E0196641B1D89009204EB50
:100E5000D47405EB6404A2B25B89FFF737FE02B0DD
:100E600070BDDC2826D00ED9E42821D014D9F6286C
:100E700016D0FC280DD1622402EB4404E48814440B
:100E800094F8D950DDE7C42810D0D6280CD0A72874
:100E900008D0A0F12004EFE7DF28FAD16624EBE7C1
:100EA0006124E9E76724E7E76424E5E76324E3E7EF
:100EB0006024E1E76524DFE72DE9F04F85B0814646
:100EC0000078109DBDF83840BDF83CB0039500286F
:100ED00064D09A4690460D461E4600272BE0EB78DC
:100EE000A978B8F800203344934204DCBBF1000F2A
:100EF00007D05B4505DDAB782A7813441C44A4B2C7
:100F000056460A283ED00D2810D0B8F802202144B9
:100F1000914252DC039B3246CDE9005341462346C1
:100F2000FFF7D4FD6B7818440644B6B20137BFB260
:100F300019F8070090B32B79002BD0D1DC283AD0D8
:100F400013D9E42835D019D9F6282AD0FC2812D193
:100F5000622305EB4303DB882B4493F8DA1093F804
:100F6000D82093F8D9301144BBE7C4281FD0D62825
:100F70001BD0A72817D0A0F12003EAE7DF28FAD179
:100F80006623E6E70137AB782A78BFB2134419F835
:100F900007001C44A4B256460028CCD105B0BDE8D9
:100FA000F08F6123D5E76723D3E76423D1E7632379
:100FB000CFE76023CDE76523CBE704480B464946DE
:100FC00005B0BDE8F04F31F00BBE00BF30E70308BD
:100FD0002DE9F04F89B093460290BDF84C2000787F
:100FE000BDF84860DDF8509004930F4605921C460A
:100FF0004FF0000880B10A2811D1BB783A78049CE0
:10100000134408F101081E441FFA88F8029B13F8E4
:101010000800B6B20028EED109B0BDE8F08F029BFF
:1010200003EB08050DF11E030093012207AB2846D0
:101030003946FFF755F9BDF81C30BBF80020039086
:101040002344934203DC059A3AB1934205DDBB7811
:101050003A78049C13441E44B6B2BDF81E30BBF867
:1010600002203344934236DC039BC3B1029B039AB4
:1010700003F1010A0AEB080302F1FF3A13FA8AFAB4
:10108000CDE900793346224615F8010B5946FFF7A2
:101090001DFD7B78184404445545A4B2F0D1039B50
:1010A00098441FFA88F8029B13F808002028A1D161
:1010B00033462246CDE900795946FFF707FD7B7894
:1010C00008F1010818441FFA88F8029B0444A4B2EE
:1010D00013F808008EE70299024831F081FD09B04B
:1010E000BDE8F08F30E703082DE9F04186B01546E2
:1010F0000DF116021E46009205AB002207460C9C1D
:10110000FFF7EEF82B88BDF8142000969B1A0026F6
:1011100003EBD373029438462A46C3F34F03019678
:10112000FFF756FF06B0BDE8F08100BF2DE9F04F94
:1011300005888BB0CC18AC42BDF85080159F36DCCA
:10114000448808EB0206A64231DC1E4603790446B9
:1011500083BBC7F3C42BC7F3451A07F01F0902204E
:10116000FF27A36802FB051500FB053523F08EFF62
:10117000684623F0EFFF23794FF44032009223BBFF
:101180000222238801929B1B68460793CDE903AB9B
:10119000CDF80890CDE90575CDE9088623F084FFE8
:1011A00023F0E4FF022024F0D1F80028FAD00BB09D
:1011B000BDE8F08F012B0CD1C7F3074BC7F3072A0B
:1011C0005FFA87F904203F0ECBE7012B01D1002203
:1011D000D7E7014802F0FCFA18E703082DE9F047C9
:1011E000BDF82050DDF824E0AA4202D914462A4670
:1011F0002546994202D90C46194623465F1ABFB2CA
:10120000002F6BD0A5EB020C1FFA8CFCBCF1000F79
:101210005BD00679002E4ED0012E69D10488D0F81B
:10122000088002FB0414674548F824E023D37C08B7
:101230000D4607E0B0F8009002FB0959AB4228F8D0
:1012400019E016D06444A4B2A74204D80C44E41AAE
:101250000132A4B292B20135ADB2002EEAD0012E15
:1012600046D1B0F8009002FB0959AB4248F829E09A
:10127000E8D1BDE8F087A2EB05094FEA5C0406E07F
:10128000038802FB031328F813E09542F1D03C4495
:10129000A4B2A44503D84C440131A4B289B20132AE
:1012A00092B2002EECD0012E22D1038802FB031350
:1012B00048F823E0E9E70488D0F8088002FB04142A
:1012C000674528F814E0D6D3B1E77B1C0124CDE9AB
:1012D000084E9BB2BDE8F047FFF728BF0135AD1AB5
:1012E000ADB2CDE9085E0123BDE8F047FFF71EBFB0
:1012F000014802F06DFA00BF18E703089388002B3D
:1013000000F090802DE9F04FD488A1B0002C00F0BF
:101310008680B2F800C007880CEB0305BD427EDC76
:10132000B2F802E045880EEB0406AE4277DCB2F874
:1013300008A0B1F800805344434570DCB2F80AB00D
:101340004B885C449C426ADC03790E460546144691
:10135000002B6ED0012B08BF4FF004096ED1AB6893
:1013600032790EFB07CC09FB0C39002A5FD0012A29
:1013700064D10422B3680BFB08AA02FB0A3A23F0EB
:1013800085FE684623F0E6FE33794FF40032009282
:10139000002B4AD0012B51D10022A388E188019271
:1013A0006846A8EB03024FF0000B099307920891DF
:1013B000CDF818A0CDE902BBCDE904BB23F074FE43
:1013C0000AA823F029FFA2882B79CDF82890BF1A0C
:1013D0000B9743B3012B31D15B460AA800250C9330
:1013E000CDE90F5523F0E0FE15A823F05BFFA3889D
:1013F0003279CDF854A0A8EB03031693E2B1012A89
:101400001CD1002315A8CDE91A33179523F012FF3C
:1014100023F0ACFE022023F099FF0028FAD021B07F
:10142000BDE8F08F70470223D7E70222B5E702221A
:10143000A0E74FF0020992E70225E2E7014802F037
:10144000C7F900BF18E7030810B54488038882B0C5
:101450000022CDE900411146FFF768FE02B010BD41
:1014600070B5044601804280037182B00D46164675
:1014700002FB01F09BB1012B08BF042311D103FB38
:1014800000F030F0EDFF069BA0600022CDE9006384
:1014900020462B461146FFF749FE02B070BD0223DD
:1014A000EDE7014802F094F918E703080B8810B43F
:1014B00001224C8883810023C481416002758360CE
:1014C000037003615DF8044B704700BF0B884A88C6
:1014D00083800023C280038143810380438070475F
:1014E00070B5012186B04FF4000025F0F7FA012114
:1014F0000846224E224D234C25F0CCFA012104202F
:1015000025F0C8FA30460422082124F0A7FC28461A
:101510000422092124F0A2FC1B4B4FF480723046B8
:101520006946CDE9002324F00FFC4FF400736946AF
:101530002846009324F008FC01214FF4000025F018
:1015400009FB00214FF4000025F004FB204624F0A5
:101550009BFC0E4D0E4B02934FF080624FF4804384
:1015600020460121CDE90352ADF8143024F03AFDB4
:10157000204602A924F0BEFC06B070BD0000024067
:1015800000080240005C0040020201000000FFBFB2
:10159000A086010010B50A4C0121204624F050FD20
:1015A0002046012124F092FD2046002124F08EFDEA
:1015B000FFF796FF0348BDE8104031F067BB00BF5E
:1015C000005C0040A8E703082DE9F8430746894678
:1015D00069486A4DDFF8BC81674E012124F024FD83
:1015E00002E0013D00F092804146304624F01AFEB0
:1015F00004460028F5D000215F48604DDFF878816F
:101600005F4E24F035FD002239465B4824F024FD6E
:1016100002E0013D00F084803146574824F002FE8C
:1016200004460028F5D0B8F81830544DDFF854813E
:10163000514E01E0013D7DD04146304624F0F2FD9F
:1016400004460028F6D04C484C4C4E4EDFF84881FA
:101650004946054624F080FD01E0013C4CD031466E
:10166000284624F0DFFD0028F7D04146284624F024
:10167000D9FD0028F1D04048404DDFF81881012104
:10168000064624F0D1FC01E0013D5DD041463046E4
:1016900024F0C8FD04460028F6D03748374D384EB0
:1016A00039460122074624F0D7FC01E0013D53D022
:1016B0003146314824F0B6FD04460028F6D03B8B75
:1016C0002E4D314F2C4E01E0013D4DD03946304674
:1016D00024F0A8FD04460028F6D00121264824F075
:1016E000AFFC254824F03AFD01210446224824F0AD
:1016F000BFFC2046BDE8F883244A2548032131F089
:101700006FFAFFF747FF2046BDE8F8831F4A2048DD
:10171000214631F065FAFFF73DFF2046BDE8F8832A
:101720001A4A1B48012131F05BFAFFF733FF2046CC
:10173000BDE8F883154A1648022131F051FAFFF747
:1017400029FF2046BDE8F883104A1148042131F0F2
:1017500047FAFFF71FFFCCE70C4A0D48052131F08F
:101760003FFAFFF717FFC4E7084A0948062131F09E
:1017700037FAFFF70FFFBCE7005C004001000300F1
:1017800002000010800000104000001068E703080D
:10179000B4E7030801000010040000102DE9F8432D
:1017A000814688464648474C474E454D01211746DD
:1017B00024F03AFC01E0013C5BD03146284624F09D
:1017C00031FD0028F7D0494600223D483D4C3C4EB3
:1017D0003E4D24F041FC01E0013C54D029463848FC
:1017E00024F020FD0028F7D0338B364C384E344D92
:1017F00001E0013C51D03146284624F013FD002879
:10180000F7D02F482F4C324E4146054624F0A4FC19
:1018100001E0013C4BD03146284624F003FD00286E
:10182000F7D02748274C2A4E39460546294F24F041
:1018300093FC01E0013C12D03146284624F0F2FC32
:101840000028F7D03946284624F0ECFC0028F1D0D7
:101850001B48012124F0F4FB0120BDE8F8831E4A57
:101860001E48042131F0BCF9FFF794FE2046BDE884
:10187000F883194A1948214631F0B2F9FFF78AFE78
:101880002046BDE8F883144A1448012131F0A8F934
:10189000FFF780FE2046BDE8F8830F4A0F4802217B
:1018A00031F09EF9FFF776FE2046BDE8F8830A4A3C
:1018B0000A48032131F094F9FFF76CFE2046CCE78B
:1018C000005C004001000300010000100200001055
:1018D000800000100400001078E70308B4E7030854
:1018E0002DE9F0479846002B00F09A8082460D467D
:1018F0007548764E764F744C0121914624F094FB46
:1019000002E0013E00F0B3803946204624F08AFC14
:101910000028F6D0B8F1010F0CBF002101216A4860
:101920006A4F694E6B4C24F0A3FB00225146664877
:1019300024F092FB02E0013F00F0A28021466248C1
:1019400024F070FC0028F6D0338B604F624E5E4C62
:1019500002E0013F00F09D803146204624F062FC09
:101960000028F6D05848594C5B4E5C4F2946054636
:1019700024F0F2FB01E0013C65D03146284624F01A
:1019800051FC0028F7D03946284624F04BFC0028AB
:10199000F1D001214C484D4F4D4D4B4C24F044FBB0
:1019A00001E0013F7ED02946204624F03BFC002880
:1019B000F7D0514601224448444F434D454C24F052
:1019C0004BFB01E0013F76D021463F4824F02AFC42
:1019D0000028F7D008F1FF3A2B8B3B4C404E59FAC8
:1019E0008AFA09F1FF37C9F1020909EB07039845A3
:1019F00020DD364D01E0013D2FD03146204624F058
:101A000011FC0028F7D0204624F0A8FB07F8010FAE
:101A10005745EAD12C48012124F02AFB012007E098
:101A2000304A3148194631F0DBF8FFF7B3FD404644
:101A3000BDE8F0872046002124F01AFB0121204652
:101A400024F0FEFAD5E7274A2748042131F0C8F8E8
:101A5000FFF7A0FD2046BDE8F087224A2248072173
:101A600031F0BEF8FFF796FD2846BDE8F0871D4A25
:101A70001D48012131F0B4F8FFF78CFD3046D7E75F
:101A8000184A1948022131F0ABF8FFF783FD3846B8
:101A9000CEE7144A1448032131F0A2F8FFF77AFD8B
:101AA0003846C5E70F4A1048052131F099F8FFF78D
:101AB00071FD3846BCE70B4A0B48062131F090F81F
:101AC000FFF768FD3846B3E7005C00400100030003
:101AD000010000100200001080000010040000103F
:101AE0004000001088E70308B4E703082DE9F04739
:101AF0001C46002B6AD0824689465048504DDFF87C
:101B000054814E4E0121174624F08EFA01E0013D2A
:101B100070D04146304624F085FB0028F7D051466E
:101B200000224648464DDFF81481464E24F094FAD0
:101B300001E0013D67D03146404824F073FB0028A6
:101B4000F7D0B8F818303E4DDFF8FC803B4E01E08E
:101B5000013D61D04146304624F064FB0028F7D0B7
:101B600049463648364DDFF8E080344E24F0F4FA2A
:101B700001E0013D59D04146304624F053FB002896
:101B8000F7D0013C2D4D304EDFF8CC8057FA84F968
:101B9000013F17F8011F2A4C284624F0DDFA01E026
:101BA000013C1DD03146284624F03CFB0028F7D0EC
:101BB0004146284624F036FB0028F1D04F45E8D1B5
:101BC0001E48012124F03CFA012007E01F4A20486A
:101BD000194631F005F8FFF7DDFC2046BDE8F08737
:101BE0001A4A1B48052130F0FBFFFFF7D3FC2046C3
:101BF000BDE8F087154A1648012130F0F1FFFFF7E4
:101C0000C9FC2846EAE7114A1148022130F0E8FFF2
:101C1000FFF7C0FC2846E1E70C4A0D48032130F0ED
:101C2000DFFFFFF7B7FC2846D8E7084A0848042139
:101C300030F0D6FFFFF7AEFC2846CFE7005C00404F
:101C400001000300020000108000001098E7030864
:101C5000B4E7030801000010040000102DE9F04F64
:101C6000012883B0324E48D0022852D0DFF8C4B0E9
:101C7000B6F91090B6F912300BF28A57002B39DD05
:101C8000013B09F1FF329BB292B20233DB00013219
:101C90000093D30101934FF0000A4FF0080EB9F101
:101CA000000F20DDABF1020800255446C446614612
:101CB0000022B6F9103031F9020F04FB035302EB96
:101CC000C3030132082A27F81300F2D10134A645D4
:101CD0000CF1100CEBD101352BB2994508F18008BD
:101CE000E3DC019B9B44009B0EF1080E73450AF157
:101CF000080AD4D103B0BDE8F08F0E4AB6F924B07B
:101D0000B6F91490B6F9163002F28A7702EBCB1BC3
:101D1000B4E7B6F926B0B6F924200649B6F918900A
:101D2000B6F91A305A4401F68A1701EBC21BA5E72F
:101D3000B0F4002084050120774BB3F9CC2B002AA6
:101D40002DE9F04158DD013A92B27449B3F9CE4B16
:101D5000895CA3F8CC2B2140E4B21441A3F8CE1B3C
:101D600093F8BD71DFF8B4C103EB471000F51370B1
:101D700000254FF0070E12E0B3F9CE6B1CF801807E
:101D8000A3F8CC1BF2B2013506EA08060A41102D71
:101D9000A3F8CE6B02EB440400F1020029D0B0F8A6
:101DA0000029A24206DCB0F9001019B1B0F8801881
:101DB000A14234DAB3F9CC6B721E002E91B2DBDC97
:101DC000196B4A1C1A630A78A3F8CCEBFF2A08BFE8
:101DD000023105F1010508BF196302F07F01102DE2
:101DE0004FEAD212A3F8CE1B02EB440400F102002A
:101DF000D5D10320BDE8F0811A6B511C196314780A
:101E0000FF2C08BF02324FF0070108BF1A6304F02D
:101E10007F02A3F8CC1BA3F8CE2BCC40A0E705EBA8
:101E2000071103EB4101A21AB1F8CC113F020A4499
:101E300017FA82F203EB420292F8CC02020910F088
:101E40000F05A3F8D02B1BD0B3F9CC2BB3F9CE0BD5
:101E5000AA4221DB521B12B23049A3F8CC2B8C5C76
:101E6000C1B211412040A3F8CE0B89B26A1E41FADB
:101E700002F212F0FF0007D0A3F8D21B0020B9E74E
:101E8000A3F8D25B2846B5E74FF6FF72AA404A4056
:101E90000132A3F8D22BADE7AA1AD7B2082F82B22B
:101EA000186B1FD939464FF0080C461C1E63047886
:101EB000A3F8CE4B0839FF2CC9B20CBF0230304614
:101EC00004EB0222082992B2A3F8CCCBEDD8A7F1FB
:101ED0000901C1F3C401083FC1EB411107EBC10186
:101EE00001F0FF07411C196304780C49FF2C04BF63
:101EF00002301863C7F1080080B2A3F8CC0B0E5C67
:101F000044FA00F002FA07F110FA81F1344089B284
:101F1000A3F8CE4BAAE700BFB0F4002088720408F3
:101F20002DE9F04FD9B00128109000F03582022839
:101F300000F04582854B864A1692B3F91020129321
:101F40001392B3F91220159203F6D4330F93159B15
:101F5000002B40F31382139B013B9BB20133179379
:101F6000DB010E9300231493139B002B40F3F981A4
:101F7000179B0E9AC3EB436302EBC3130193169BAB
:101F80000E331193109B012B00F0FB81022B129B4F
:101F900000F0FD81D3F8C06180230D9318AB6D492B
:101FA0000C9320AA58AD0023A2F120000C4601E0BA
:101FB00054F8043F0F9F1BB207EB430C36F8137025
:101FC000019B3CF8033013FB07F340F8043B8242CB
:101FD000EED1954203D051F8203F2032E4E704903F
:101FE0000DF1600928E005EB030E46180CEB080420
:101FF000411AED1AB8184FEA2E23D21BA8EB0C0C8D
:10200000C9F8083024124FEA2C27361209122D1273
:1020100000121212049BC9F80040C9F81C70C9F8DC
:102020000460C9F81810C9F81450C9E9030209F18D
:1020300020094B4500F08380D9F80430D9F81C20E2
:10204000D9F814E0D9F80C60D9F80850D9F8001084
:1020500003919F1840F235240EEB060004FB07F7AE
:1020600040F6681404FB00F0D9F818402C4340F601
:10207000E40505FB0378384D05FB027705F62F25AF
:1020800005FB0E0C1C436FF47B6505FB0600144337
:10209000CD02D9F81820D9F808100290A7EB000B50
:1020A0000A4440F2544000FB02F2D9F8100044EA1E
:1020B0000E04A8EB0C033443C602D9F818004FF005
:1020C000B50A03EB0B01A3EB0B030AFB01F10AFBBF
:1020D00003F38246214800FB0A2BD9F808004FF48D
:1020E000C46A0AFB0022803554EA0600029806EB17
:1020F000050E01F18001A5EB060503F18003C44440
:1021000007440EEB020805EB0B00AEEB0202A5EB59
:102110000B054FEA21214FEA23237FF464AF039B91
:10212000DB00C9E90633C9E90433C9E90233C9E967
:102130000033049B09F120094B457FF47DAF084B28
:102140001F681FAB17A90B932CE000BFB0F4002051
:102150008405012094720408B2F2FFFF38F1FFFFFA
:102160001C21012057F82B0057F823300860C1F8D4
:10217000A03057F82A000B9B086257F8290057F83F
:102180002540086457F8222057F8280057F82650B1
:1021900008668B42C1F88020C1F8C040C1F8E05009
:1021A00000F0C380D1F8E460D1F824E0D1F8A4A015
:1021B000D1F864B0D1F88420D1F8C4504B6C0892A7
:1021C0000EEB060051F8042F059640F23524B44674
:1021D000039204FB00F00AEB0B0240F66814834EF6
:1021E00004FB02F2043040F6E40404FB0E04043263
:1021F00006FB0C0006F62F2606FB0A26C0100290EE
:10220000E410F6100694A4EB06096FF47B6C029CB4
:102210000CFB0B22D210A446ACEB02080792039AE7
:1022200045EA030CCDF824C04FEA022C09EB080262
:102230000A92099AE81840F2544404FB00F042EA7A
:102240000E0E6B4A0430A9EB080902FB05084FF497
:10225000C46505FB0300059B069A0A9D4EEA030E22
:102260004EEA0A0302EB060A029A079E16440296F9
:1022700043EA0B06089B0596B5240CF5005C4FEA73
:10228000032E04FB05F54FEAE80804FB09F4ACEB68
:102290000E0380350EEB0C092D1203EB080C803475
:1022A000A3EB08031A4624120CEB0503C01009EB3C
:1022B00000060693A9EB0000134602EB0409029AFC
:1022C00002EB0008821A05981B1B50EA0E040698C0
:1022D0000AEB060BACEB0505A6EB0A064FEAAB3B97
:1022E0004FEAA03A4FEAA9394FEAA8384FEAA2329A
:1022F0004FEAA3334FEAA5354FEAA6367FF432AF53
:10230000039B20339B1157F82330C1F8E030C1F80C
:10231000C030C1F8A030C1F880300B660B640B628E
:102320000B600B9B8B427FF43DAF019A119B049D88
:102330001344DDE90C26A3F11001144654F8040BF4
:10234000304421F8020F8B42F8D12032954203F13C
:102350001003F0D1019B0E9A80339A4201937FF4CF
:1023600011AE0E9A1399149B02EBC11201330E9217
:10237000159A14931BB29A423FF7F6AD59B0BDE8D7
:10238000F08F129BD3F8C46100230D9306E6D3F8B7
:10239000C86100230D9301E61649174AB1F92430AC
:1023A000B1F914001291DB011390B1F916001590E8
:1023B00001F6D431591813440F911693C7E50D480F
:1023C0000D4AB0F92610B0F92430B0F91840139432
:1023D0000B44DB0100F6D4315918B0F91A401290C1
:1023E000134415940F911693B1E500BFB2F2FFFFAD
:1023F00038F1FFFFB0F400208405012070B51D4DB9
:1024000041F2D453B5F8D22BEA5285F8BD0101242C
:102410000026FFF791FC60B9D5F8D03B53B90246CE
:1024200004F6E823013405EB430324B2402C9A80E0
:10243000F6D170BDB5F9D01B002917DD214489B252
:102440000AB204F6E823013405EB430324B2A242A6
:102450009E80F6D102F6E8224C1C05EB420224B223
:10246000B5F8D23B93803F2CD3DD70BDA1B222469C
:10247000F0E700BFB0F400202DE9F04FDFF83C8416
:1024800087B0044604911646404642F67042002149
:102490001D4630F041FBA21CC8E90065C8E90B42AB
:1024A00008F5F57301934FF0000B92469AF801304E
:1024B0000AF10206A3F1C002C8F83060202A22D82F
:1024C000DFE812F0FE01210021002100300121008F
:1024D00021002100210021002100210021002100F4
:1024E00021002100210021002100210021002100E4
:1024F00021002100210067028000440021003100FA
:1025000021002100260003F0F003D02B00F06C85A1
:102510009AF802209AF8033043EA022306FA83FA73
:10252000C8F830A0C2E79AF802109AF803209AF887
:1025300004009AF8053042EA0122D54906FA82FAE7
:1025400043EA0023C8F830A00B80AFE79AF80220D6
:102550009AF803109AF8043041EA022109B203F014
:102560000F0308EBC3134F290AF1050203F13203ED
:102570000AF145040ADC12F8010B23F8020FA2420B
:10258000F9D106EB010AC8F830A08FE712F8010B69
:1025900023F8020FA242F9D19AF8453003F00F0355
:1025A00008EBC31332330AF146020AF1860412F82B
:1025B000010B23F8020FA242F9D106EB010AC8F879
:1025C00030A073E79AF802409AF80300B8F9B431E2
:1025D0009AF8041040EA04209942524600B240F0B2
:1025E000D88151B3013989B20AEB410198F8B6415B
:1025F000093107320BE088F8BB3112F8013C023296
:1026000003F00F030233914288F8BC3113D012F863
:10261000025C12F8013CA5424FEA1313EBD188F893
:10262000B93112F8013C023203F00F030233914238
:1026300088F8BA31EBD1D8F83060B8F910300644D8
:10264000C8F83060002B00F08883B8F91220002A07
:1026500000F08383B8F91440B8F91600B8F918608F
:10266000B8F91A508B4914FB00F7A8F8267092FBB2
:10267000F0F042F66C47A8F81E0016FB05F0A8F82B
:10268000280013FB02F093FBF4F492FBF5F293FBAA
:10269000F6F348F80710A8F82030A8F82220A1F691
:1026A0000403A1F20442A8F81C40A8F824006FF02B
:1026B000FF0143F8041F9A42FBD1774A6FF0FF03F2
:1026C00042F8043F0133B3F5807FF9D1734B4FF4E7
:1026D000007103F5806243F8041F9A42FBD1704BEE
:1026E000A3F1860BA3F6062305936D4B1B78012BF4
:1026F0000BD1D8F830306B499A1C0023C8F8302031
:102700000B8041F8043CC8F8CC3BB8F9B431012B3C
:1027100000F04681032B00F09182634830F0B6FA56
:1027200000203AE19AF802109AF803209AF804304F
:1027300042EA012212B2CF2A009200F38D831A09D5
:1027400003F00F0303EB42034FEA431909F24A2750
:1027500047443A460AF105000AF1150410F8011B36
:1027600022F8021FA042F9D1504A4FEA032C02EB93
:10277000090A0CF5B37C002201E0BA451AD037F9FA
:10278000025F002DF9D040F33D84ADB2691E89B2DD
:102790000CEB0204013108EB44040144023C10F844
:1027A00001EB24F802EF8842F9D12A4412B208461C
:1027B000BA45E4D108EB0901B1F94C22002A40F0F6
:1027C00028841B01012200E02A4614B2181908EBE4
:1027D0004000511CB0F94C028DB20028F4D0002CFE
:1027E00009B20EDD013A324D13FA82F209F6CC201D
:1027F00005EB42024044A0F880B020F802BB8242C0
:10280000F9D11C4408EB440004F2A452B0F84C0285
:1028100008EB440408EB420201380F29A4F8CC0A63
:10282000A2F804B01CDC03F593720A440B44C1F116
:102830000F0113FA81F11F4B08EB4202023A03EB3E
:102840004101B2F8803801335B009BB2A2F8023933
:1028500032F8020F0344013B9142A2F88038F0D1D4
:1028600008EB0902144BA2F8CCB109F5E67141441A
:1028700099440023B1F8802013441BB221F8023F91
:102880008945F7D1009B33449A46C8F830300DE6AD
:10289000181101201C19012018150120181D0120F4
:1028A0000A0B0120080B0120B47304081AF700205A
:1028B0007EFF0020FCF600209AF60020B0F40020F5
:1028C0009AF805109AF806209AF802009AF8033050
:1028D00042EA0122C8F80C209AF807109AF808205A
:1028E00042EA0122C8F808209AF80910A8F8B411A1
:1028F00043EA002301291AB200F07482032948D167
:102900009AF80A3088F8B6319AF80B301B09A8F803
:1029100010309AF80B3003F00F03A8F812309AF831
:102920000C108023342013FB01014144C8F8C0116E
:102930009AF80D1088F8B7119AF80E100909A8F83E
:1029400014109AF80E1001F00F01A8F816109AF85A
:102950000F1013FB01014144C8F8C4119AF810107C
:1029600088F8B8119AF811100909A8F818109AF8FF
:10297000111001F00F01A8F81A109AF8121013FBA9
:102980000103434406EB020AC8F8C831C8F830A076
:102990008CE5D24830F07AF9002007B0BDE8F08F1E
:1029A00098F8B93188F8BD3198F8BA41FFF7C4F901
:1029B00000287FF4B2AE2046FFF720FD00287FF408
:1029C000ACAEC74BBBF8002019880A4412B21A807B
:1029D000ABF80020A3F5286301E0B3F9002A23F83F
:1029E000022B059A9342F8D1BE49002223F8022B0C
:1029F0008B42FBD1BC490A88B1F90C36013212B2C4
:102A00000A8033B192FBF3F103FB1123B3FA83F392
:102A10005B09B64AB64F13700020FFF781FA012018
:102A2000FFF77EFA0220FFF77BFA0020FFF716F986
:102A30000120FFF713F90220FFF710F9B8F912602F
:102A4000F600002E40F3D682D8F80C0057F8042C7C
:102A5000B8F91010D8F80830BC4690425CF8044928
:102A6000009498BFCD0040F2C7804FF0000ECDF823
:102A700004E0F2464FEAC10900294D4640F3A88020
:102A8000009A9A4280F0A48000220292164639E011
:102A9000FF2940F3C38042F03F0230F0FF0105D030
:102AA000FF2800F3C9800028C0F2C480E408D8F8E9
:102AB0000400DCF80010D8F80050014401980144EB
:102AC00003FB0155029B1D44009B44EA4214049AF7
:102AD0001D4402EB450302F8154024125C70B8F95E
:102AE00010103B68013636B24FEAC1094E454D46DB
:102AF00032466ADA18460093D8F808300296304415
:102B0000984265D2B8F91E509EFBF5F501FB05F51C
:102B100001FB0EF4B8F91C0092FBF0F000EBC500CD
:102B200002EBC40400F62C4008EB400004F62C3401
:102B300008EB4404B0F90600B8F922509EFBF5F505
:102B400001FB05F1B4F90650B8F9204092FBF4F20C
:102B500002EBC10202F62C52C0EB0011C0EB810166
:102B600012242D0208EB420210FB0455C1EB810137
:102B7000B2F90620691A40F23A2410FB04104FF60D
:102B8000E37412FB04004FF6247412FB041140F2AC
:102B90006F1412FB04552D12EAB2001209120392AF
:102BA00035F0FF02C4B25FFA81F904D0FF2D00F3C3
:102BB0008480002D7FDB039AD208920131F0FF055B
:102BC0007FF466AF42EA990267E70093D8F80830CD
:102BD000B8F912600AF1010A0FFA8AFAF600B24552
:102BE000D64609DADCF80020D8F80C00CDF804A0AD
:102BF00052448242FFF440AF009A15449D423D602A
:102C000012D33C4B1A68164400221E603A60D8F872
:102C10000C30B3423FF669AD0120BEE60029FFF655
:102C20003CAF42EA990238E7002D7FF45EAD314BAC
:102C30001E68ECE700243AE71F2438E7B8F81230A2
:102C4000B8F8102013FB02F3002B39DD08F5B2565B
:102C5000294C123600250BE0B8F81030B8F81220D5
:102C600001352DB213FB02F39D4204F1800428DAF2
:102C700098F8B93188F8BD3198F8BA71FFF75CF867
:102C800000287FF44AAD3846FFF7B8FB00287FF4F0
:102C900044AD134ABBF8003011880B441BB222F834
:102CA0008039ABF800302146964221F8023BD3D060
:102CB00032F9023FF8E7002280E74FF4F8627DE73F
:102CC0000D4CB8F81430B8F8162013FB02F3002BA3
:102CD0004ADD08F5B256123600251BE0947304084D
:102CE000040B0120040201200C0B01200A0B01201F
:102CF000141101201011012084000120B8F81430B3
:102D0000B8F8162001352DB213FB02F39D4204F1F1
:102D1000800429DA98F8BB3188F8BD3198F8BC7185
:102D2000FFF70AF800287FF4F8AC3846FFF766FB97
:102D300000287FF4F2ACBB4ABBF8003011880B448A
:102D40001BB222F88239ABF800302146964221F8B6
:102D5000023BD3D032F9023FF8E7B3482FF096FF99
:102D6000002007B0BDE8F08FB8F81A30B8F8182086
:102D700013FB02F3002B7FF73DAE08F5B256123677
:102D800000250CE0B8F81830B8F81A2001352DB23B
:102D900013FB02F39D4204F18004BFF62BAE98F8BA
:102DA000BB3188F8BD3198F8BC71FEF7C5FF00282B
:102DB0007FF4B3AC3846FFF721FB00287FF4ADACBD
:102DC0009A4ABBF8003011880B441BB222F88439B0
:102DD000ABF800302146964221F8023BD2D032F9BE
:102DE000023FF8E79AF80A3088F8B6319AF80B30C3
:102DF0001B09A8F810309AF80B3003F00F03A8F85D
:102E000012309AF80C108023342013FB0101414446
:102E1000C8F8C0119AF80A1088F8B7114FF00114D9
:102E2000C8F814409AF80C1013FB01014144C8F88B
:102E3000C4119AF80A1088F8B811C8F818409AF81E
:102E40000C1013FB0103434406EB020AC8F8C83117
:102E5000C8F830A0FFF72ABB0AF1040AFF2BC8F814
:102E600030A03FF423AB1A0903F00F0303EB420336
:102E7000580100F24A2747443E460AF101050AF18B
:102E80001104002115F8012B26F8022F0A4492B2F2
:102E9000AC4211B2F6D1113212B20092644A4FEA3A
:102EA000032C02EB000E0CF5B37C002201E0BE45C2
:102EB0001AD037F9026F002EF9D040F38780B6B2EE
:102EC000711E89B20CEB0205013108EB4505214466
:102ED000023D14F8019B25F8029F8C42F9D132443F
:102EE00012B20C46BE45E4D108EB0001B1F94C2208
:102EF000002A71D11B01012100E031460CB21D19DD
:102F000008EB45054A1CB5F94C5296B2002DF4D099
:102F1000002C12B20EDD0139464E13FA81F100F693
:102F2000CC2506EB41014544A5F880B025F802BB4D
:102F3000A942F9D1191908EB410501F2A454B5F8D9
:102F40004C5208EB410108EB4404013D0F2AA1F863
:102F5000CC5AA4F804B01CDC03F593741444134455
:102F6000C2F10F0213FA82F2334B08EB4404023C25
:102F700003EB4202B4F8803801335B009BB2A4F843
:102F8000023934F8021F0B44013BA242A4F88038F6
:102F9000F0D108EB000300F5E671A3F8CCB1019B7A
:102FA000414418440023B1F8802013441BB221F897
:102FB000023F8842F7D1009B9A44C8F830A09AF8A3
:102FC0000030FF2B7FF44FAFFFF770BA0026214689
:102FD000324412B20C4685E7013AA1F8CC2AA1F896
:102FE0004CBB1B010122B7E70AF1040AC8F830A064
:102FF000FFF75CBAB8F910503B680093ED00D8F8C1
:103000000830F9E5002501462A4412B20846FFF7C8
:10301000CFBB013AA1F8CC2AA1F84CBB1B0101217E
:1030200001E400BF060B0120A4730408080B012073
:103030001AF700207EFF0020FCF6002010B54FF4A8
:1030400000510446094822F0F9FE0421084822F004
:10305000F7FE204600F02EFE0A230046013BFCD17D
:1030600004210348BDE8104022F0E8BE000C0240F5
:103070000008024010B54FF400510446094822F000
:10308000DFFE0421084822F0DBFE204600F012FE9D
:103090000A230046013BFCD104210348BDE810404F
:1030A00022F0CCBE000C024000080240F0B5012125
:1030B00093B0082023F0EEFC40F201254FF40053BA
:1030C00002A9ED48CDE9023522F03EFE012104209F
:1030D00023F0E0FC042402A9E848CDE9024522F0EF
:1030E00033FE2146E54822F0A9FE2020FFF7C2FF6B
:1030F000CA20FFF7BFFFC320FFF7A0FF0820FFF79C
:103100009DFF5020FFF79AFFCF20FFF7B3FF00206D
:10311000FFF794FFC120FFF791FF3020FFF78EFFEC
:10312000ED20FFF7A7FF6420FFF788FF0320FFF7DC
:1031300085FF1220FFF782FF8120FFF77FFFE82045
:10314000FFF798FF8520FFF779FF0020FFF776FF54
:103150007820FFF773FFCB20FFF78CFF3920FFF7B4
:103160006DFF2C20FFF76AFF0020FFF767FF342078
:10317000FFF764FF0220FFF761FFF720FFF77AFFF8
:103180002020FFF75BFFEA20FFF774FF0020FFF726
:1031900055FF0020FFF752FFB120FFF76BFF002023
:1031A000FFF74CFF1B20FFF749FFB620FFF762FF38
:1031B0000A20FFF743FFA220FFF740FFC020FFF7E0
:1031C00059FF1020FFF73AFFC120FFF753FF1020EF
:1031D000FFF734FFC520FFF74DFF4520FFF72EFF17
:1031E0001520FFF72BFFC720FFF744FF9020FFF7C4
:1031F00025FF3620FFF73EFFC820FFF71FFFF22014
:10320000FFF738FF0020FFF719FFB020FFF732FF6C
:10321000C220FFF713FFB620FFF72CFF0A20FFF7AD
:103220000DFFA720FFF70AFF2720FFF707FF204623
:10323000FFF704FF2A20FFF71DFF0020FFF7FEFE27
:103240000020FFF7FBFE0020FFF7F8FEEF20FFF75E
:10325000F5FE2B20FFF70EFF0020FFF7EFFE00200A
:10326000FFF7ECFE0120FFF7E9FE3F20FFF7E6FE47
:10327000F620FFF7FFFE0120FFF7E0FE0020FFF73A
:10328000DDFE0620FFF7DAFE2C20FFF7F3FEC82450
:103290000046013CFCD12620FFF7ECFE0120FFF7A1
:1032A000CDFEE020FFF7E6FE0F20FFF7C7FE292046
:1032B000FFF7C4FE2420FFF7C1FE0C20FFF7BEFE7F
:1032C0000E20FFF7BBFE0920FFF7B8FE4E20FFF7E8
:1032D000B5FE7820FFF7B2FE3C20FFF7AFFE0920D5
:1032E000FFF7ACFE1320FFF7A9FE0520FFF7A6FEAF
:1032F0001720FFF7A3FE1120FFF7A0FE2046FFF7DF
:103300009DFEE120FFF7B6FE2046FFF797FE162050
:10331000FFF794FE1B20FFF791FE0420FFF78EFEBF
:103320001120FFF78BFE0720FFF788FE3120FFF703
:1033300085FE3320FFF782FE4220FFF77FFE052047
:10334000FFF77CFE0C20FFF779FE0A20FFF776FEE0
:103350002820FFF773FE2F20FFF770FE0F20FFF7E6
:103360006DFE1120FFF786FEC8240046013CFCD10B
:103370002920FFF77FFE2C20FFF77CFE01214FF074
:10338000806023F0B7FB01214FF4000023F082FBA3
:1033900001216F2023F07EFB0E220321384822F00A
:1033A0005DFD0E220421364822F058FD0E22062132
:1033B000334822F053FD0E220B21314822F04EFDFE
:1033C0000E220C212E4822F049FD40F2022341F644
:1033D000580202A92A48CDE9022322F0B5FC214671
:1033E0000922284822F03AFD09220121254822F02D
:1033F00035FD0E220821234822F030FD0E2209213E
:10340000204822F02BFD0E220A211E4822F026FD24
:103410000E220B211B4822F021FD40F6037302A966
:103420001848029322F090FC0E220621134822F045
:1034300015FD0E220721114822F010FD0E220A214F
:103440000E4822F00BFD4FF4986302A90B4802933B
:1034500022F07AFC0E220321074822F0FFFC0E2204
:103460000621054822F0FAFC482302A902480293EB
:1034700022F06AFC08E000BF000C02400008024095
:1034800000000240000402400E220A21534822F0AC
:10349000E5FC4FF4806302A95048029322F054FCEB
:1034A0000E2206214E4822F0D9FC0E2207214C485C
:1034B00022F0D4FC09220A21494822F0CFFC0E2236
:1034C0000B21474822F0CAFC09220C21444822F073
:1034D000C5FC4FF4E65302A94148029322F034FCA4
:1034E00004220721C02023F0C3F94FF4003023F059
:1034F000BFFA012023F0C8F93D2023F097FB0028F4
:10350000FAD002A822F01EFF012509221D23002463
:10351000032140F20D1740F243160692CDE90753FE
:1035200040F2171240F2471302A809910C92CDE91C
:103530000A760D93CDE90244CDE90444CDE90E4469
:10354000109422F0AFFE274B019301A821F0AAFBB3
:103550001E2204230221FF20029204930691079069
:1035600040F2E3124FF4F0734FF4A0714FF050406B
:103570000F9210934FF48062052311910E9002A9CF
:1035800019480596CDE90C23184E0397CDE9084458
:10359000CDE90A4422F030FF02A915480E9622F028
:1035A0002BFF284622F022FF29460F4822F08CFFED
:1035B00029460F4822F088FF284622F017FF2046B0
:1035C00022F0E0FE284622F0CFFE0A490A4A0B4BC1
:1035D0000D7016601D7013B0F0BD00BF00140240E6
:1035E000001802405806000184680140005802D0CB
:1035F00004690140B8AB0120BCAB0120C0AB012085
:1036000040B1012805D1074A074B084911601870DD
:1036100070477047034A044B4FF0504111601870D7
:10362000704700BFBCAB0120C0AB0120005802D0E6
:1036300010B5D0B1012802D10E4822F0F5FF0E4B93
:103640001B786BB10D4C002308200121237023F05F
:1036500043F8022022F0CAFE2378002BFCD010BDD4
:103660000120BDE8104022F0C1BE054822F0DCFF79
:10367000E5E700BF04690140B8AB0120202101202B
:10368000846801400C4B197871B101290BD130B419
:103690000A4C4FF05045084600222560FF2130BCFF
:1036A0001A70FFF7C5BF7047044A05481060012231
:1036B00010461A70FFF7BCBFC0AB0120BCAB0120A5
:1036C000005802D008B5082023F032F80021082065
:1036D00023F002F8014B01221A7008BD20210120BD
:1036E00000B5012183B0402023F0D4F94FF40052FB
:1036F00040F2013369460448CDE9002322F024FB5F
:1037000003B05DF804FB00BF0018024038B941B1B6
:10371000012905D14FF40051044822F091BB7047B4
:1037200070474FF40051014822F088BB0018024056
:10373000F0B58BB000240746174E8DF808404FF4C3
:10374000163001962EF08CFE234601462246054691
:103750008DF8104006940894384601AC07960395FE
:103760000594FEF789FE0D4B04AA1A60FCF75CFF76
:103770000B4A116813685B1AB3F5FA7F05D200464D
:1037800013685B1AB3F5FA7FF9D3FCF73DFE039893
:103790002EF06EFE0BB0F0BDF000400140AB0120FA
:1037A000C4AB0120054A116813685B1A984204D91A
:1037B000004613685B1A8342FAD37047C4AB0120FA
:1037C000024A136801331360704700BFC4AB012085
:1037D000014608B501482FF003FAFEE7C473040858
:1037E00070B524F015FE294B294A2A495960072053
:1037F0000021F02482F823409960186082F8231099
:1038000000F058F8244CFCF7F1FC24482FF03EFA65
:1038100000F0F6F9FDF764FEFFF748FCFCF732FE16
:103820001F48FFF785FF44F61F6628F0B9F926F018
:1038300083FDFFF755FF00F0EDFAFCF7B7FC2568B4
:10384000062003E026F092FD06280BD023685B1BC0
:10385000B342F7D9062805D01248FFF769FF12488E
:10386000FFF7B6FF002028F0B9F948B10F482FF054
:103870000DFA00210846FFF749FF03F073F8FEE751
:103880000848FFF755FF0A48FFF7A2FF10E000E0E5
:1038900000ED00E03F900200C4AB0120D8730408A3
:1038A000D86A0408D04B0408F073040804740408B0
:1038B0001074040870B5012198B07E2023F0EAF856
:1038C00040F202230C220521B548019322F0C6FAEA
:1038D0000C220621B24822F0C1FA60236946B048A2
:1038E000009322F031FA0C220021AE48012422F08C
:1038F000B5FA6946AB48009422F026FA0C22002162
:10390000A94822F0ABFA21460C22A74822F0A6FAD9
:103910000C220821A44822F0A1FA0C220921A24875
:1039200022F09CFA0C220A219F4822F097FA0C22DE
:103930000E219D4822F092FA0C220F219A4822F083
:103940008DFA4CF2037369469748009322F0FCF914
:103950000C220021954822F081FA21460C2293483E
:1039600022F07CFA0C220721904822F077FA0C22F0
:1039700008218E4822F072FA0C2209218B4822F08D
:103980006DFA0C220A21894822F068FA0C220B21D8
:10399000864822F063FA0C221146844822F05EFA2F
:1039A0000C220D21814822F059FA0C220E217F4869
:1039B00022F054FA0C220F217C4822F04FFA4FF6E5
:1039C000837369467948009322F0BEF90C220021E6
:1039D000774822F043FA21460C22754822F03EFA3D
:1039E0000C220221724822F039FA0C22032170487D
:1039F00022F034FA0C2204216D4822F02FFA0C2216
:103A000005216B4822F02AFA0C220B21684822F08B
:103A100025FA0C221146664822F020FA0C220D21CC
:103A2000634822F01BFA0C220E21614822F016FA9C
:103A30000C220F215E4822F011FA4FF63F0369462F
:103A40005B48009322F080F90C220021594822F0B3
:103A500005FA21460C22574822F000FA0C220421D4
:103A6000544822F0FBF90C220521524822F0F6F9C5
:103A70000C2208214F4822F0F1F90C220F214D4869
:103A800022F0ECF948F2331369464A48009322F0D9
:103A90005BF92146204623F015F802230721042272
:103AA0000693CDE90A330C934FF4C07040230025F0
:103AB0000791099108920F924FF400614FF4005260
:103AC0001193129006AB10260DA8CDE916230D9484
:103AD0000E95139515951096149121F0BDFE0823AF
:103AE000CDE90334059502942021012021F0DAFF6D
:103AF00004460028F8D102A821F04CFF0520FFF76A
:103B000051FE02210822CDE90212012305940493FB
:103B10002021012021F0C6FF04460028F8D102A888
:103B200021F038FF03210822CDE902120423059475
:103B300004932021012021F0B5FF0028F9D102A82B
:103B400021F028FF2021012021F0ACFF0028F9D12D
:103B500002A821F01FFF04200821012240F2312396
:103B6000CDE90201CDE904232021012021F09AFFB3
:103B70000028F9D102A821F00DFF40F2AB2021F07E
:103B800029FF2021012021F08DFF0028F9D14FF0DD
:103B9000504343F8040B13F13E5FFAD118B070BDE7
:103BA0000004024000080240000C024000100240E5
:103BB0000014024000180240E9B110B40022441E73
:103BC00000E01A46531C994204F8012FF9D10378FA
:103BD00023B10DE010F8014F8C4209D1591C9A42D3
:103BE0000B46C9B2F6D105485DF8044B2FF04EB82C
:103BF0005DF8044B704701482FF048B8247404085E
:103C000030B5012189B04FF4801022F073FF0121FB
:103C10002020264C264D22F03DFF0121202022F0BD
:103C200039FF0121202022F035FF204605220721FF
:103C300022F014F920460522082122F00FF920462F
:103C40000522092122F00AF98022204601A940F22A
:103C50000223CDE9012322F077F801A920464FF491
:103C60008073019322F070F801A94FF4007320468D
:103C7000019322F069F8284623F010F94FF082737F
:103C800000211822284603930491072303A94FF02B
:103C90000074CDE90542ADF81C3023F067F92846E1
:103CA000012123F007FA09B030BD00BF0014024023
:103CB0000050014010B5044602210A4823F0A6FA3C
:103CC0000028F9D02146074823F06CFA0121054865
:103CD00023F09CFA0028F9D0024823F061FAC0B220
:103CE00010BD00BF0050014010B504460221054838
:103CF00023F08CFA0028F9D021460248BDE8104094
:103D000023F050BA0050014008B50121044823F0C7
:103D10007DFA0028F9D0024823F042FAC0B208BD6B
:103D20000050014008B52DF071FF162303604FF0DD
:103D3000FF3008BD0020704770B51E1E12DD541EF6
:103D4000A51903E0FCF7A8FAAC420BD014F8010F58
:103D50000A28F7D10D20FCF79FFA2078FCF79CFA8F
:103D6000AC42F3D1304670BD0020704738B50D4BE2
:103D70000D4A18680144914201D8196038BD0B4CB6
:103D8000482004F10B0501E014F8010FFCF784FA58
:103D9000A542F9D12DF03AFF0C2303604FF0FF301C
:103DA00038BD00BF0000002000B074D0307404089B
:103DB0004FF4005353600020704700BF012070474C
:103DC000FEE700BF08B52DF021FF162303604FF07A
:103DD000FF3008BD0120704708B501224B21822029
:103DE000FDF7DCFC00224B218220BDE80840FDF7F6
:103DF000D5BC00BF10B5042104468220FDF7E4FBCA
:103E000020EA0402D2B204218220BDE81040FDF76E
:103E1000C5BC00BF70B5012186B0084622F03AFE4D
:103E200001214FF4804022F065FE00244FF400464B
:103E300004A9454804968DF814408DF8174021F0E8
:103E400083FF0F21204623F023FA01254FF440631E
:103E500002A80296ADF80C308DF80E5021F0AAFAA7
:103E60003A4B019301A820F01DFF394B394E1C70CD
:103E70006A4602232146822035707480B480FDF7A3
:103E80002FFDBDF800305BBA9BB240F611029342A1
:103E900057D1022203218220FDF780FC0520FFF785
:103EA00081FC224603218220FDF778FC2846FFF79B
:103EB000A1FF0220FFF79EFF0820FFF79BFF2A4685
:103EC0000A218220FDF76AFC482220218220FDF78A
:103ED00065FC0520FFF766FC2A4621218220FDF7BC
:103EE0005DFC17218220FDF76FFB224617218220FF
:103EF000FDF754FC9A2241218220FDF74FFC224617
:103F00004A218220FDF74AFCFFF766FF072256216F
:103F10008220FDF743FC2A4658218220FDF73EFC13
:103F2000032240218220FDF739FCFF220B21822051
:103F3000FDF734FC2A4609218220FDF72FFC06B04C
:103F400070BD0548FFF744FC00000240280F0F0138
:103F500024210120C8AB01204074040870B5402121
:103F600082B08220FDF730FB40B23A4CC343DB0FF6
:103F70000028237008DB384AD2E901326380A2802E
:103F8000FFF72AFF02B070BD04230DEB03024D21A1
:103F90008220FDF7A5FCBDF80600BDF804302F4ACD
:103FA00040BA80B2A0F5B4715BBA82FB01529BB2F9
:103FB00040F6B835C917AB42C1EB620115D9C3F55C
:103FC0006D63254D08330E2B6E683EDCB0F5B97F6E
:103FD00021D80022A8681346811A314405299ABFC6
:103FE0006B680246C5E90132C8E7C3F571630E3359
:103FF000B3F5616F20DA1A4A174DA2FB0323DB08E1
:10400000B0F5B97F6E680ED940F6277290421ADD7E
:1040100040F23F1208E040F6277398420FDD40F26D
:104020003F12002303E00022B3420AD99E1BA86876
:104030009042D1D2111AD0E7074DEF23E0E78AB2C0
:104040000023F61AF3E78AB2EEE70F2293FBF2F3AE
:10405000D6E700BFC8AB012024210120E9A28B2EA6
:10406000898888880A4B1A782AB10A4AD96812685E
:10407000521A032A00D8704710B5FF2200240B21E2
:1040800082201C70FDF78AFBBDE81040FFF766BF79
:1040900024210120C4AB012010B50322602182201D
:1040A000FDF77CFB0A20FFF77DFB61218220FDF7F5
:1040B0008BFA622104028220FDF786FAA4B204433F
:1040C000A4B221460E482EF08BFD07EE904AF8EE82
:1040D000677A17EE900A2DF011F80022094B2DF0A7
:1040E00065F805A3D3E900232DF08AF92DF020FB14
:1040F000C0B210BDAFF300806666666666C6524009
:10410000587404080000084008B54FF4004021F03E
:10411000A9F900B908BD4FF4004021F0A5F9034A00
:10412000034B1268DA6001221A7008BDC4AB01208B
:10413000242101200D4A0E498A420CD20139891AE4
:1041400021F003010B4B0431194453F8040B42F8DE
:10415000040B8B42F9D11C481C494FF000028842E5
:10416000B8BF40F8042BFADBFFF73ABB0000002091
:10417000ACF40020B001060808B502482EF086FD18
:10418000FEE700BF5C74040808B502482EF07EFD0F
:10419000FEE700BF7C74040808B502482EF076FDE7
:1041A000FEE700BF9074040808B502482EF06EFDCB
:1041B000FEE700BF5C74040808B502482EF066FDF7
:1041C000FEE700BFA4740408B0F4002044370220C6
:1041D000704700BF70B590E82C00C4681C1B0E46E9
:1041E000A5EB020511D1002D07DB6FF000434B60FA
:1041F00005D16FF00043336070BD094B4B60294619
:10420000204609F0D1FD306070BD2146284609F0F6
:10421000CBFD7060002DF2D1002CEADA004BEAE70A
:104220000100008038B5164C6268E3682568A16813
:10423000606902EBD27203EBD37305EB620201EB10
:104240006303000421692260A36009F0A7FDA3694C
:1042500060602169180409F0A1FDD4E90013A26887
:10426000E06003EBD375A1EB650100EBD075A2EB29
:1042700065020B441044E36121602062A26038BDF6
:104280003C210120064BD3E9011010B4DA681C6808
:10429000C3E90B12C3E909405DF8044B704700BF46
:1042A0003C210120F8B5164C164ED4E90B133268A8
:1042B0006160E360A2B9D4E909252260A560606964
:1042C0000A442B440004C4E9072309F06DFD0346AA
:1042D00001464FF48030736009F066FD2061F8BD3F
:1042E000626B1268D2E9030703EBD37501EBD1725D
:1042F000A0EB6202A7EB65052260A560DFE700BFC7
:104300003C21012004000020104B996BF0B4104CAC
:104310005F68DE681D68481C84FB0024C217C2EB7E
:10432000A4029C6802EB820207EBD77706EBD676F5
:1043300005EB670704EB660603EBC101A0EB420245
:10434000C1E90F769A63F0BC704700BF3C210120A1
:10435000676666662DE9F8433E4B3F4C1D683F4A51
:10436000C4F894206FF00040002DC4E92300C4F885
:1043700098206CDD3A4B1B684FF00008964603EB23
:10438000C50516460146C446C14647460FE0B2423F
:1043900002DD16464FF001095A68824210DB724571
:1043A00002DD96464FF0010808339D420ED01A6890
:1043B0008A42ECDA11465A6882424FF00107EEDA7F
:1043C00008339D4210464FF0010CF0D17FB3C4F882
:1043D0009010B9F1000F2FD0C4F89860BCF1000F15
:1043E0002ED0C4F88C00711AB8F1000F2BD0C4F88D
:1043F00094E0AEEB00036069C4F89C30000409F05F
:10440000D3FC0546A069D4F89C10000409F0CCFC4C
:10441000A3698542A8BF05464FF400111804C4F8EB
:10442000A05009F0C1FCC4F8A400BDE8F8836FF007
:104430000041B9F1000FCFD1084EBCF1000FD0D12F
:104440006FF00040CFE7C0F100430133D3E7022310
:104450001946D0E7BCD601203C2101200100008094
:10446000A4D601201D4BD3E92A0250EA0201F0B480
:1044700006D01B4C00256FF000412560C3F8B0103A
:10448000D3E9006505EBD5719C68D3F8987030448A
:1044900049100E182244BE4218609A6016DD781A40
:1044A0001860D968D3F8947001EBD1746410A61821
:1044B000BE4203DCD3F88C70BE4201DA3A1B9A602C
:1044C00028440A44C3E90702F0BC7047D3F890407F
:1044D000A642BCBF601A1860E3E700BF3C21012080
:1044E0000400002070B52C4C2C4B60691B682169BE
:1044F000C4F8BC30012200236FF00045C4F8B82096
:1045000000044FF48032C4E93222C4F8B050C4E948
:104510003033C4E92A3309F041FCA36960602169A2
:10452000180409F03BFC1E4B1E4A1968E06052F863
:104530002130054603B31C4B4FF48E7202FB01334E
:1045400063631B686668D3E9032306EBD67005EB4B
:10455000D571A2EB6002A3EB61032260A360FFF7B9
:1045600081FF2268A3681148C4E90B65C4E90923E7
:10457000BDE870401CF07CB80B48606352F8041B27
:1045800021B90133042BF9D1074BDAE74FF48E72CE
:1045900002FB03036363D4E73C2101206C85012007
:1045A00090B60120F8BD012094B601200C00002037
:1045B00070B50A4D0A4E84B00024234632460921C4
:1045C00001A82EF06BFD012101A820F04BF8013469
:1045D0000A2C45F8040BF0D104B070BD0C22012068
:1045E000E874040830B5084D85B0002423462A46F7
:1045F000092101A82EF052FD013401A820F062F833
:104600000A2CF3D105B030BDE87404080648002335
:1046100000F13C014FF0FF3241F8332001330A2B07
:10462000FAD10023836370473C21012010B5164C5A
:104630000023C4E93E334FF4A071A822C4E9051257
:1046400004F13C014FF0FF3241F8332001330A2BD3
:10465000FAD10023A363FFF77DFE4BF23331D4F888
:10466000A00009F0A1FBD4F8A420084B9042014619
:104670005860C4BFD4F8A01059604FF4803009F0DE
:1046800093FB206110BD00BF3C21012004000020ED
:1046900010B5074CFFF7A6FF064B002204F11C00E3
:1046A000C3F8B8201BF0E4FF0123236310BD00BF53
:1046B000040000203C21012070B5124C256BBDB1D7
:1046C000114D626B2B68114E00219A42216303D178
:1046D000A26B33689A4205D0FFF7A8FF2A683368B7
:1046E000C4E90D23FFF7FEFEBDE87040FFF760BF91
:1046F000FFF778FF064B04F11C00C3F8B8501BF01D
:10470000B7FFDDE70400002048BE012008BE0120FD
:104710003C21012010B5074C074BD4F8A01059607C
:104720004FF4803009F040FB2061BDE81040FFF7F6
:1047300079BD00BF3C2101200400002010B5074CCA
:10474000074BD4F8A41059604FF4803009F02CFBCB
:104750002061BDE81040FFF765BD00BF3C2101208E
:10476000040000202DE9F041A64E0546D6F8B80019
:104770002C7884B048B92CB9A34B6A681B689A425C
:1047800000F0888004B0BDE8F081002C3DD19F4A44
:104790006B6812689A423ED09D4A12689A4200F0B5
:1047A00081809C4A12689A4200F09F809A4A12685F
:1047B0009A4200F08580994A12689A4200F0B380CC
:1047C000974A12689A4200F0B5808F4A12689A425E
:1047D00000F0CC80934A12689A4200F0B280924A6C
:1047E00012689A4200F0D580904A12689A4200F00E
:1047F000E7808F4A12689A4200F036818D4A12682B
:104800009A4200F0ED80002409E0012C0ED0002037
:1048100004B0BDE8F081884B1B68002B72D0874B39
:104820001F6817B3204604B0BDE8F081774A6B6873
:1048300012689A4252D0764A12689A424ED0754A0D
:1048400012689A4267D0744A12689A4263D0734AD7
:1048500012689A4203D0724A12689A42D7D14FF432
:104860008033C6E9323300208CE7297A744808F097
:104870005FFD0028D6D0D6F81C21724B013283FB95
:104880000213A3EBE27303EB4303D31A3846C6F8D3
:104890001C3177E70390FFF70FFF6B4B039818600D
:1048A00001206FE7644B1B68002BB8D131694FF4CE
:1048B000802009F073FA4042C6F8A8000124AEE750
:1048C0005D4B1B68002BAAD131694FF4802009F0A1
:1048D00065FA4042C6F8AC000124A0E7564B1868C0
:1048E000002894D1C6F8A8004CE7534B1B68002B56
:1048F00095D131694FF4802009F050FA0124C6F8AF
:10490000AC008CE731694FF4802009F047FA0124AC
:10491000C6F8A80083E7484B186800287FF477AFF3
:10492000C6F8AC002EE7494B4FF6FA22C6E9323200
:10493000012474E7454A4FF6FA23C6E932320124CE
:104940006DE7D6F80031002B0CBF01230023C6F819
:10495000003131D1D6E901213068F368C6E9090197
:10496000C6E90B230124FFF7D5FE58E7364BDFF8E5
:10497000C880C6F8004101271F60FFF733FE08F129
:104980001C00C6F8B8401BF073FE3C46C8F83070F7
:1049900045E7294B706B1A68002A0CBF01210021E2
:1049A00019606FF000420CBF294B2A4BC6F8B020AB
:1049B000C0F8DC30012432E7FFF774FC01242EE755
:1049C000D6F80421736B002A0CBF01220022C6F81E
:1049D00004210CBF204A214AC3F8DC2001241EE731
:1049E0001F4900234FF0FF3241F8332001330A2BD7
:1049F000FAD1736B1B4AC3F8DC200023B363012494
:104A00000DE700BF3C210120B0BB0020A0BB00206F
:104A1000A4BB002098BB00209CBB0020ACBB0020A6
:104A2000A8BB0020B4BB0020B8BB0020BCBB00204A
:104A3000C0BB0020C4BB00200400002034BE012005
:104A400040000020565555553CBE01201E05010072
:104A5000F474040804750408147504081C7504082B
:104A6000782101203C750408134FB36B009338463E
:104A7000124B134A14210BF0A3F97168B36B34681D
:104A8000726BD6F80CC0B068C2F8DC7001EBD17163
:104A90005F1C0CEBDC7204EB61010A2400EB62008A
:104AA00006EBC30397FBF4F204FB1272C3E90F1089
:104AB000B2630124B3E600BF442201202875040834
:104AC0003475040838B5124C124DD4F8CC1068680F
:104AD00009F064F9034601464FF480306B6009F039
:104AE00063F96B68D4F8A020206193420BDBD4F803
:104AF000A420934203DDBDE83840FFF71FBEBDE8A8
:104B00003840FFF78FBBBDE83840FFF703BE00BF5A
:104B10003C2101200400002070B51C4C636BD4F8CC
:104B2000B0201B68D868824204D11B69D4F8B42035
:104B30009A422AD0164E174D716809F02FF9216953
:104B4000284009F02BF9626B63681268716803EB07
:104B5000D373A0EB63031069236009F01FF9216987
:104B6000284009F01BF9626BE368166865682168E4
:104B700003EBD372A0EB62002944D6E90352C4E9E7
:104B80002C5203442362A060E16170BD3C210120EE
:104B9000040000200000FFFF124AD2F8C010D2F833
:104BA000203199421DDDD2F82401431C082B10B49A
:104BB000C2F824310C4C04BF0023C2F824310B4B43
:104BC00054F82000C2F8C40083FB0103A3EBE17397
:104BD00003EB43035B000633C2F820315DF8044B5E
:104BE000704770473C210120B8740408ABAAAA2A78
:104BF00010B5144CD4F8B830A3B1134AD4F8C0306F
:104C000012680133C4F8C030A2B9D4F8C830B3F583
:104C1000803F08D1D4E92A23134303D0BDE81040D4
:104C2000FFF720BC10BDFFF74DFFD4E92A23134343
:104C3000F8D0F3E7FFF770FFD4F8C830B3F5803F42
:104C4000E8D0F0E73C21012004000020064B10B41E
:104C5000D3E90524014604FB02F2D3F8BC005DF859
:104C6000044B2DF059BF00BF3C2101202DE9F04F2E
:104C7000C34E4468336AC2689C4283B000F3CF805D
:104C8000B568AC42B4BF04240024934280F2E480AF
:104C90000823D0F800C03268944580F2CE8087683F
:104CA000BA4244F0010440F3D18043F001031C40B8
:104CB00040F0B180DFF8CC820D460746D8F80410EA
:104CC000ACEB020009F06AF8D6F8FC207B68D8F853
:104CD0000410D6F8189002EB2040B2682860981AA9
:104CE00009F05CF8D6F8F830BA68D8F80410A9EBE7
:104CF000204003446B603368D01A09F04FF8B26863
:104D00000192D6F8FC20FB68D8F80410B76902EBD2
:104D10002040019AA860981A09F040F8D6F8F820C7
:104D20006B68A7EB20401044002BE860C0F299802C
:104D3000B2699342ACBF042300232A68002AC0F260
:104D4000968071698A42A8BF43F002030028C0F22E
:104D50009380B2699042A8BF0424AA68002AC0F2D6
:104D6000918071698A42A8BF44F0020413EA0400EA
:104D700051D1D6E9056106F1FF3C01F1FF3820E091
:104D800014F0080E00F0A98095E89400EB68E86044
:104D9000BF1A04FB07F74FF0000EE41A97FBF4F775
:104DA0001744AF6072469142D4BF04240024002F00
:104DB0002CDBBE4200F38F8044F002047346234292
:104DC00029D153EA040200F0CA80002BD8D01A0778
:104DD00000F185809E465F075CD5D5E90097AA68FB
:104DE000A7EB010AA2EB09020AFB02FAEA68BF1A62
:104DF00042469AFBF7F74F449E4561D0002AC5E929
:104E00000272B8BF0824CEDA002FD2DA44F00104CF
:104E100073462342D5D0002003B0BDE8F08F934203
:104E2000F9DBB3689A4232DA0824D0F800C032685D
:104E300094454FF00403FFF632AFF5698768AC453F
:104E4000C8BF44F00204BA423FF72FAFF569AF4242
:104E5000C8BF43F002032AE7954216DD002CDAD1E1
:104E6000E3E72A68002A4FF00803BFF66AAF00287C
:104E700043F00103BFF66DAFAA68002A4FF00804A3
:104E8000BFF66FAF44F0010470E7002301E7002391
:104E90000824FEE613F002073DD0D5F804902A68F6
:104EA000EF68ACEB020AA7EB09070AFB07FAAF6849
:104EB0009E45A7EB020267469AFBF2F24A449DD157
:104EC000002AC5E900721ADA002F4FF008031CDA35
:104ED00043F0010373E7734671E723467BE7D5E9A7
:104EE0000127D5F800E0EB686860A7EB0E0702FB2E
:104EF00007F7D21A97FBF2F777442F6000228A4215
:104F0000ACBF04230023002FE2DBBE423FF757AFC4
:104F100043F0020353E713F0010207D19E4515D079
:104F20000029C5E902221EDC042442E7D5F80490DA
:104F3000EA68D5F800A0A9EB020202FB0AFBAA6806
:104F4000A2EB0A0A9BFBFAF24A4455E70029C5E99D
:104F500000220DDD002E10DD002C7FF411AF0120AA
:104F600003B0BDE8F08F002E04DD1446734628E739
:104F70000423CAE77346022421E702231FE700BF88
:104F80003C210120040000200368002B2DE9F04F94
:104F90003F4C53DB6569AB4250DA4268002A4DDB77
:104FA000A769BA424ADA8668002E47DBB54245DD7A
:104FB000D0F80CC0BCF1000F40DB67453EDDF61AAF
:104FC000ACEB020C002E86EAE67A8CEAEC7702FB68
:104FD00005F9AAEBE67AA7EBEC77B4BF4FF0FF3EFA
:104FE0004FF0010ED4F8BC40BCF1000F09EB030BED
:104FF000C9B2B4BF4FF0FF384FF00108BA454FEACD
:105000004A064FEA470C04F80B1024DD8768BB42C0
:10501000ACEB660A10D07344BAF1000F04EB03073F
:1050200004DB4244AAEB060A02FB05F907F8091063
:1050300087689F42E244EED1BDE8F08F154BD4F86B
:1050400028211B681449D868531CC4F82831BDE8CE
:10505000F04F2CF0BBBFC768BA42A6EB6C09EBD08F
:10506000424405FB02FA08FB05F500E04244B9F1B1
:10507000000FA8BF734404EB0307A8BFA9EB0C09FA
:1050800007F80A10C7689742B144AA44EED1D3E7A3
:105090003C210120F8EA00205075040810B50C46A8
:1050A0000549FFF7E3FD00B910BD21460248BDE800
:1050B0001040FFF769BF00BF682201202DE9F047CB
:1050C0002B4BDFF8B4801B68D8F80020D31AC3F349
:1050D000160584B00746002D48D05B42C3F3160383
:1050E00058BF5D42C5F500051544D8E90241D8F81E
:1050F0000430019402EB030A04EB01095545CDF895
:105100000C9012DA6E4600950295394605F50005B9
:105110003046FFF7C3FFAA45F5DCD8E90021D8E9FE
:10512000024302EB010A04EB0309124B1B68E31A6A
:10513000C3F3160139B15B42C3F3160358BF59429A
:10514000C1F500010C444C450092CDF808A00ADAE4
:105150006E4601940394394604F500043046FFF787
:105160009DFF4C45F5DB04B0BDE8F0871546BCE774
:1051700050D70120ACD601203C2101202DE9F0417F
:10518000DFF8E880D8F80030002B46DD344C354E8F
:1051900004F59E7700251AE0110613D4596B0029F7
:1051A0003DD0B3F9120027284ED0920637D4186BA1
:1051B0000A6803689A4239D0D4F8C410384640319E
:1051C000FFF76CFFD8F800300135AB4225DD3168C0
:1051D000D4F81CC1AA018B188A5859681068C4F801
:1051E0003C01D1E900015268C4F84021C4E95101F1
:1051F0001A8ABCF1000FD1D1D105CDD4636B5B6CA1
:10520000002BDFD01006DDD463211748FFF746FFDF
:10521000D8F800300135AB42D9DCBDE8F081D4F8D4
:10522000C4103846B031FFF739FFCBE74A6843680E
:105230009A420ED1BCF1000FC4D0D4F8C410384645
:105240006031FFF72BFFBDE7B8213846FFF726FF97
:10525000B8E7D4F8C4103846E731FFF71FFFB1E7CD
:105260003C21012080D701207822012064D7012031
:105270002DE9F843DFF850904FEAD248D9F80030D2
:105280000E46044653F82810006808F087FD0D4BC1
:1052900053F8287005463946306808F07FFD3946D6
:1052A0002D1A206808F07AFDD9F80030074653F827
:1052B0002810306808F072FD384430602560BDE881
:1052C000F88300BF6C100508DCE400202DE9F043F2
:1052D000B1F1000985B0DDE90D785CDD1E461546AB
:1052E000044600EB091916E0002E3FD1A2684344A2
:1052F0003944CDE901320091E1680391DDE90223EF
:1053000010343A4443440C996846CDE90223FFF730
:10531000C5FE4C453FD0D4E90013CDE90013002D64
:10532000E2D0284608F03AFD01990090284608F09E
:1053300035FD0190002E31D1009BA168E2680291F9
:1053400040443B44019000930392284608F026FD18
:1053500003990290284608F021FD0390002ECDD03D
:10536000324603A902A8FFF783FFC7E7324601A927
:105370006846FFF77DFFDDE90023D4E902103A44D7
:1053800043440291CDE900230390324603A902A8C9
:10539000FFF76EFFB2E705B0BDE8F083324601A922
:1053A0006846FFF765FFDDE90023D4E902103A44BF
:1053B00043440291CDE900230390C6E72DE9F0476D
:1053C0002D4B1A6884B0002A35D02C4D2C4EDFF8B6
:1053D000C4A0DFF8BC80DFF8C09000243368294AFD
:1053E0006BB11368284953B94B6BAB4207D00134FA
:1053F000042C05F58E75F1D104B0BDE8F0875AF89C
:105400002430002BF3D0EB6B9BB959F824002968AA
:105410000F690B6A0297C9680022CDE900010134C7
:1054200007214046FFF752FF042C05F58E75D5D1B4
:10543000E2E7F620EBE7144B596BD3F81C0109683F
:105440000B6AD1E9034150B1D120CDE9014100906F
:1054500010210E48FFF73AFF04B0BDE8F087D125D0
:10546000CDE901410246009507210948FFF72EFFCB
:1054700004B0BDE8F08700BF10BB012094B6012046
:1054800034BE012018BB01203C2101207400002003
:1054900074010020F8BD0120D87404082DE9F04FF4
:1054A000DFF868A0DAF80030002B85B026DD4FF079
:1054B0000008DFF85CB0134F134E0546C146DBF819
:1054C000003043449C6C8CB12169D7F8C420236A16
:1054D0000291E16801912A44009203214FF4801265
:1054E0003046FFF7F3FEA469002CEDD1DAF8003066
:1054F00009F101094B4508F15808E0DC05B0BDE8A9
:10550000F08F00BF3C210120E4010020E8D60120FB
:105510009CD601202DE9F047214D224F82B005F1A4
:105520003C0605F1D008002456F834305A1C28D027
:1055300028687968181A08F031FC06EBC40279680B
:105540005368AA680192D5F8FC20D5F8189002EBB0
:10555000204A019A981A08F021FCD5F8FC305345EE
:105560000FDC6B69053B5345A9EB204909DBD5F8F6
:10557000F83009EB03018B4203DCAB69063B8B423D
:1055800005DA01340A2CCFD102B0BDE8F08758F813
:105590002420504601341CF099FB0A2CC4D1F3E7B7
:1055A0003C21012004000020054AD2E9053101FB1D
:1055B000033303EBD373D2F8BC205B10D054704795
:1055C0003C21012010B51B4CD4F8B83003B910BDF4
:1055D000D4E90532D4F8BC0002FB03F200212DF01F
:1055E0009BFAD4F80431E3B9FFF7C8FDFFF7E6FEF4
:1055F000D4F81C31022B18D0D4E9053101FB033358
:1056000003EBD373D4F8BC205B106021D154FFF7B7
:1056100081FFD4E90523D4E93E10BDE810401CF019
:10562000E7BA6820FFF74AFDDEE710217020FFF798
:1056300035FFE1E73C210120F0B40B4F06460FCEC9
:105640003D6805EB850407EB840404340FC4013581
:105650006B4203F03F0305F03F0558BF5D423368DE
:105660003D602360F0BC70478C2201200D4AD2F8C7
:1056700004051368984212D0431C10B45C4204F035
:105680003F0403F03F0300EB800058BF6342111D4D
:1056900001EB8000C2F804355DF8044B7047002030
:1056A000704700BF8C22012070B50E4605462EF0D3
:1056B00007F8044630462EF003F8431CA34205D8F1
:1056C000241A281910F8013C2F2B01D0002070BD9E
:1056D00031462DF0C7FDB0FA80F0400970BD00BF23
:1056E0002DE9F84307460AF075F9D0BBDFF8908042
:1056F000D8F800307F2B27DD1F4EDFF8889000257B
:1057000006E020462CF0B4FED8F800309D4224DAA2
:1057100056F8044B39462046FFF7C6FF28B120460D
:105720000AF058F908BB56F8044C002320463A46C4
:1057300049460AF0EFFA04460AF04CF90135002810
:10574000DFD02046BDE8F88308EB830201330B4924
:10575000C8F80030002B5160CEDC00242046BDE8A4
:10576000F8833C462046BDE8F88308EB8505686869
:10577000BDE8F8432DF072BF982701204079040856
:105780009427012034C4040810B50446FFF7A8FF8D
:10579000002808BF204610BD2DE9F04F83B0834696
:1057A00001914B48012107F069FD804600285BD13B
:1057B000484803687F2B50DD4345DFF8349147DDCF
:1057C000454C59F8045B04F1A80A01274BFA07F38A
:1057D000DB071DD554F8106C28463146FFF764FFEF
:1057E000E0B93E4928462DF0CFFD18BB30462DF0DC
:1057F00035FF064630460AF0EDF830B146B1019B60
:1058000030461F7003B0BDE8F08F30462CF030FEFC
:105810000C34544516D014F80C7CD7E728460AF00F
:10582000D9F80028DDD028462DF018FF0646002EB6
:10583000EED0E4E732460023294928460AF06AFA06
:105840000646D7E7234B1B6808F101084345B7DC40
:105850000026304603B0BDE8F08F00EB83022149FB
:10586000516001330360A7E71F4B00F101081B687B
:1058700053F828402046FFF733FF064610B32F2188
:1058800030462EF043F8D8B1471C134C012504F1E3
:10589000A80801E014F80C5C4BFA05F3DA07384667
:1058A00004D554F8101C2DF0DDFC18B10C3444451F
:1058B000F0D10925019B30461D7003B0BDE8F08F83
:1058C0003746E2E72146094807F0F8F8D7E700BF76
:1058D0004879040894270120A8780408B4B804087B
:1058E00034C40408407904086CBF012050790408CE
:1058F000982701202DE9F04780463C202CF0B0FD90
:10590000124C064604F1A80A0123002701E014F80E
:105910000C3C48FA03F3BD00DB0706EB05090BD589
:1059200054F8100CFFF7DCFE30B1A4F110037351F2
:105930000435013706EB05090C34A245E7D10023F5
:105940003046C9F80030BDE8F08700BFA8780408E9
:1059500010B40C4C01212246002300E01179814251
:1059600002F10C0206D001330E2BF7D106485DF888
:10597000044B704703EB430354F823005DF8044BDA
:10598000704700BF987804086C79040830B40C4D57
:1059900001242B46002205E001320E2A03F10C03FC
:1059A0000BD01C798442F7D15C798C42F4D102EBA4
:1059B000420255F8220030BC7047024830BC7047A4
:1059C000987804086C79040830B40E4D01242B46F5
:1059D000002205E001320E2A03F10C030ED01C79DF
:1059E0008442F7D1042902D05C798C42F2D102EBD7
:1059F000420205EB820230BC90687047024830BC1E
:105A0000704700BF9878040878790408704700BF91
:105A100008B507F0CBF90B4B1B6843B10A4B1B6869
:105A2000002BBCBF03F57F43FF3300EB234000EBAB
:105A30008000064AC0EBC00382FB0320DB17C3EBE8
:105A4000A01008BD60030020E4AB0120D34D62101C
:105A5000F0B5254A254B264C15681E6885B007F021
:105A6000B7FA23681B6898472368DB689847214B7F
:105A70001B68002B32D195FBF6F51F4A6168106850
:105A80004D1B20BB042D20DC6D4600236B60009372
:105A9000C5E902332268194E53682846984767685B
:105AA0007A4202F07F0207F07F0358BF534203EBB4
:105AB000830C95E80F00013706EB4C156760012455
:105AC00085E80F00C5F88040204605B0F0BD0C4ABF
:105AD000106830B1082DD7DD1846F6E7002005B074
